:100000000C9463000C948B000C948B000C948B006C
:100010000C948B000C948B000C948B000C948B0034
:100020000C948B000C948B000C948B000C948B0024
:100030000C948B000C948B000C948B000C948B0014
:100040000C94880C0C948B000C94F9010C94D30143
:100050000C948B000C948B000C948B000C948B00F4
:100060000C948B000C948B000000000024002700EF
:100070002A0000000000250028002B0000000008D6
:10008000000201000003040700000000000000005F
:10009000010204081020408001020408102001021F
:1000A000040810200000000023002600290004049A
:1000B0000404040404040202020202020303030310
:1000C00003030513E80E11241FBECFEFD8E0DEBFF7
:1000D000CDBF12E0A0E0B1E0EEE4F2E302C0059093
:1000E0000D92AA32B107D9F723E0AAE2B2E001C02B
:1000F0001D92A039B207E1F710E0C2E6D0E004C0DB
:100100002197FE010E941616C136D107C9F70E9439
:10011000EF0E0C941A190C940000CF92DF92EF921C
:10012000FF920F931F93CF93DF936C017A018B01A2
:10013000C0E0D0E0CE15DF0581F0D8016D918D01D2
:10014000D601ED91FC910190F081E02DC601099559
:10015000892B11F02196EECF7E01C701DF91CF915F
:100160001F910F91FF90EF90DF90CF900895FC01C9
:10017000538D448D252F30E0842F90E0821B930B0C
:10018000541710F0CF96089501970895FC01918DB2
:10019000828D981761F0828DDF01A80FB11D5D96E9
:1001A0008C91928D9F5F9F73928F90E008958FEF57
:1001B0009FEF0895FC01918D828D981731F0828D0B
:1001C000E80FF11D858D90E008958FEF9FEF089562
:1001D000FC01918D228D892F90E0805C9F4F821BC6
:1001E00091098F73992708958FE592E00E94E800A6
:1001F00021E0892B09F420E0822F0895FC01848DF1
:10020000DF01A80FB11DA35ABF4F2C91848D90E040
:1002100001968F739927848FA689B7892C93A0891B
:10022000B1898C91837080648C93938D848D9813A5
:1002300006C00288F389E02D80818F7D8083089538
:10024000EF92FF920F931F93CF93DF93EC0181E026
:10025000888F9B8D8C8D981305C0E889F9898081E2
:1002600085FD26C0F62E0B8D10E00F5F1F4F0F731C
:100270001127E02E8C8DE8120CC00FB607FCFACFC8
:10028000E889F989808185FFF5CFCE010E94FE00C3
:10029000F1CF8B8DFE01E80FF11DE35AFF4FF08285
:1002A0009FB7F8940B8FEA89FB89808180620AC02E
:1002B0009FB7F894EE89FF896083E889F989808186
:1002C0008370806480839FBF81E090E0DF91CF9155
:1002D0001F910F91FF90EF900895CF93DF93EC0162
:1002E000888D8823C9F0EA89FB89808185FD05C056
:1002F000A889B9898C9186FD0FC00FB607FCF5CF90
:10030000808185FFF2CFA889B9898C9185FFEDCFD7
:10031000CE010E94FE00E7CFDF91CF9108950895AE
:1003200080E090E008953C9A3D98000000000000B5
:1003300000003C9887B18F7C87B93C9A08953D9A1C
:1003400000000000000000003C980895CF93DF9368
:10035000EC0160E08E810E94220B61E08E810E94A0
:10036000220B60E08E810E94220B8BE891E00197C6
:10037000F1F7DF91CF9108956115710579F0FB01D7
:1003800001900020E9F73197AF01461B570BDC01C4
:10039000ED91FC910280F381E02D099480E090E0E2
:1003A00008950C94BC011F920F920FB60F92112466
:1003B0002F933F934F935F936F937F938F939F936D
:1003C000AF93BF93EF93FF938FE592E00E94FE00FF
:1003D000FF91EF91BF91AF919F918F917F916F911D
:1003E0005F914F913F912F910F900FBE0F901F90F3
:1003F00018951F920F920FB60F9211242F938F937F
:100400009F93EF93FF93E0916F02F09170028081D0
:10041000E0917502F091760282FD12C09081809188
:1004200078028F5F8F7320917902821751F0E091EB
:100430007802F0E0E15AFD4F958F8093780201C079
:100440008081FF91EF919F918F912F910F900FBE1F
:100450000F901F901895CF92DF92EF92FF920F931B
:100460001F93CF93DF936C017C0187E0E80EF11CB2
:10047000C0E0D0E0062F10E0B8010C2E02C0759548
:1004800067950A94E2F76170F70181917F010E94FC
:10049000220B2196C430D10579F7C601DF91CF91A7
:1004A0001F910F91FF90EF90DF90CF900C94A601D9
:1004B000CF92DF92EF92FF920F931F93CF93DF9330
:1004C000EC01F62E642F8C810E94220B8D818F3FD0
:1004D00019F060E00E94220B8F850F2D10E084FF41
:1004E00025C06E0187E0C80ED11CE12CF12CB801AB
:1004F0000E2C02C0759567950A94E2F76170F601BB
:1005000081916F010E94220BFFEFEF1AFF0A88E032
:10051000E816F10461F7CE01DF91CF911F910F91A1
:10052000FF90EF90DF90CF900C94A601B80184E08B
:10053000759567958A95E1F7CE010E942B026F2D84
:10054000CE01DF91CF911F910F91FF90EF90DF903F
:10055000CF900C942B0241E00E94580281E090E081
:100560000895FF920F931F93CF93DF93182FF62ECA
:10057000D72FC42F0E949F0180EC0E945009812F29
:100580000E9450090F2D1D2FCC2339F0F8018191C5
:100590008F010E945009C150F7CFDF91CF911F9179
:1005A0000F91FF900C949301CF93DF931F92CDB7DF
:1005B000DEB7698341E0BE016F5F7F4F0E94B102E9
:1005C0000F90DF91CF9108956F927F928F929F92BB
:1005D000AF92BF92CF92DF92EF92FF920F931F9351
:1005E000CF93DF93CDB7DEB7A0970FB6F894DEBFF9
:1005F0000FBECDBFC0900401D0900501E090060170
:10060000F0900701C701B60120E03AEC4AE95BE34C
:100610000E944315122F032F60E07AEC8AE99BE3D6
:100620000E940B15C61AD70AE80AF90AC701B601D3
:1006300020E432E44FE050E00E944315722E632E16
:1006400060E472E48FE090E00E940B15C61AD70AAE
:10065000E80AF90AC701B60128EE33E040E050E0AD
:100660000E94431549015A016F927F920F931F9385
:1006700087E891E09F938F938E010F5F1F4F1F9329
:100680000F930E943016B8018FE592E00E94D101CD
:10069000A501940144275527A8EEB3E00E949315C5
:1006A000C61AD70AE80AF90ADF92CF929F928F9270
:1006B00082E991E09F938F931F930F930E943016CE
:1006C000B8018FE592E00E94D1010FB6F894DEBF29
:1006D0000FBECDBFA0960FB6F894DEBF0FBECDBF44
:1006E000DF91CF911F910F91FF90EF90DF90CF900E
:1006F000BF90AF909F908F907F906F900895CF9311
:10070000DF93CDB7DEB760970FB6F894DEBF0FBEAC
:10071000CDBF8FE592E00E94E800892B09F412C159
:100720002FB7F89480915B0290915C02A0915D02DA
:10073000B0915E022FBF0A96A11DB11D80934B029E
:1007400090934C02A0934D02B0934E028FE592E03D
:100750000E94C600E0914A0291E09E0F90934A02E7
:10076000F0E0E65DFD4F80838B3309F0DFC0E09160
:100770004A02F0E0E65DFD4F108210924A0280913D
:100780002A02863451F580912B02813409F097C0FA
:1007900080912C028B3319F40E94E402C0C0809136
:1007A00037028B3309F0B5C04BE050E06CE272E0E9
:1007B000CE0101960E9421161C86CE0101960E9450
:1007C000CF14609304017093050180930601909308
:1007D000070181E080935302A2C0893481F48091A3
:1007E0002B02863409F48DC0843409F092C08091C4
:1007F0002C028B3309F08DC06CE971E08CC0803520
:1008000069F480912B02833509F083C080912C021A
:100810008B3309F04CC063EA71E07DC0813449F448
:1008200080912B02893489F580912C028B3391F5CC
:1008300076C08D3469F480912B02843409F069C04C
:1008400080912C028B3309F46AC080912D025BC029
:10085000823529F480912B02883539F552C08435D0
:10086000E9F480912B02883509F053C080912C0265
:100870008B3309F454C0803309F451C0813309F437
:100880004EC0823309F045C04AC0873409F041C0E8
:1008900080912C02803309F442C03BC08835D9F4E2
:1008A00080912B028435A9F502C0843529F480910A
:1008B0002C028133A1F12DC0833421F422C08C3469
:1008C00041F5E6CF833529F580912C028B3309F56C
:1008D00068EA71E020C0863549F480912B028835A2
:1008E000C1F480912C028B33D1F413C0853589F487
:1008F00080912B028B3419F480912E0204C0843431
:1009000029F480912C028B3321F409C0813409F43D
:100910009CCF6DEA71E08FE592E00E94D1016AE020
:1009200070E080E090E00E944C0C0CC080914A0284
:10093000803240F060EB71E08FE592E00E94D101DF
:1009400010924A0260960FB6F894DEBF0FBECDBF7C
:10095000DF91CF9108950E94F40081110C947F03E0
:100960000895CF92DF92EF92FF926C0160E080E0F9
:100970000E94CF0A63EB71E08EE593E00E94D10103
:1009800060E085E00E94CF0A0D2C000CEE08FF0805
:10099000F7FE0FC041E06DE28EE593E00E94580241
:1009A00044275527BA014C195D096E097F092AE0D1
:1009B00003C02AE0B701A6018EE593E00E94D20CA5
:1009C00064EC71E08EE593E0FF90EF90DF90CF90C4
:1009D0000C94D1018F929F92AF92BF92CF92DF92EF
:1009E000EF92FF924B015C0161E080E00E94CF0A30
:1009F00069EC71E08EE593E00E94D101C501B4017C
:100A000020E432E44FE050E00E946515822F0E94FE
:100A1000E10A6DEC71E08EE593E00E94D101C50121
:100A2000B40120EA36E841E050E00E9465158AE012
:100A3000C82ED12CE12CF12CCA01B901A7019601D5
:100A40000E946515862F0E94E10AC501B40120E1CC
:100A500037E240E050E00E946515CA01B901A701E4
:100A600096010E946515862F0E94E10AC501B40116
:100A700028EE33E040E050E00E946515CA01B9015C
:100A8000A70196010E946515862F0E94E10A6DEC70
:100A900071E08EE593E00E94D101C501B40124E626
:100AA00030E040E050E00E946515CA01B901A7019D
:100AB00096010E946515862F0E94E10AC501B401C6
:100AC000A70196010E946515B62ECA01B901A701BA
:100AD00096010E946515862F0E94E10A8B2D0E94C7
:100AE000E10A6FEC71E08EE593E0FF90EF90DF900C
:100AF000CF90BF90AF909F908F900C94D1016F9248
:100B00007F928F929F92AF92BF92CF92DF92EF929D
:100B1000FF920F931F93CF93DF934B015C0120E46F
:100B200032E44FE050E00E946515C22FC501B401C8
:100B300020EA36E841E050E00E9465158AE0C82EC0
:100B4000D12CE12CF12CCA01B901A70196010E9418
:100B50006515762EC501B40120E137E240E050E092
:100B60000E946515CA01B901A70196010E94651589
:100B7000062FC501B40128EE33E040E050E00E94AA
:100B80006515CA01B901A70196010E946515162FC6
:100B9000C501B40124E630E040E050E00E94651554
:100BA000CA01B901A70196010E946515D62FC5019A
:100BB000B401A70196010E946515B62ECA01B901BC
:100BC000A70196010E946515F62E60E080E00E9464
:100BD000CF0A66ED71E08EE593E00E94D1016DEFE2
:100BE00071E08EE593E00E94D10189E060E08C170E
:100BF00010F483E001C084E00E94CF0A8C2F0E9491
:100C0000E10A6DEC71E08EE593E00E94D101872D41
:100C10000E94E10A802F0E94E10A812F0E94E10ACE
:100C20008D2F0E94E10A8F2D0E94E10A8B2D0E94D8
:100C3000E10A6FEC71E08EE593E0DF91CF911F91B7
:100C40000F91FF90EF90DF90CF90BF90AF909F906B
:100C50008F907F906F900C94D1012F923F924F9282
:100C60005F926F927F928F929F92AF92BF92CF923C
:100C7000DF92EF92FF920F931F93CF93DF93CDB745
:100C8000DEB72F970FB6F894DEBF0FBECDBF8091B1
:100C9000040190910501A0910601B09107018134F2
:100CA0009244AF40B1050CF4D1C10E949F0180EC89
:100CB0000E9450098EE10E945009809185030E9494
:100CC0005009809186030E945009809187030E94F9
:100CD0005009809188030E9450090E9493018090DE
:100CE000040190900501A0900601B090070181E0F9
:100CF000881683EA980681EEA80681E1B8067CF0A2
:100D0000C501B40123E030E040E050E00E946515E9
:100D100049015A0119826EE1262E312C3CC090E225
:100D2000891691EA990697E0A906B10454F457E0B0
:100D3000880C991CAA1CBB1C5A95D1F7A7E0A98363
:100D400001C01982B0E88B16B3EC9B06B9ECAB0678
:100D5000B1E0BB06ECF48091890390918A03A091E5
:100D60008B03B0918C0320EE821627E6920625E3D2
:100D7000A206B104ACF52091890330918A03409119
:100D80008B0350918C03A7E0B0E00E94931531C013
:100D90004AE5242E312C8091890390918A03A091F9
:100DA0008B03B0918C03BC01CD0135E0660F771F3A
:100DB000881F991F3A95D1F7A50194010E94431508
:100DC0003F832E8381E088168BE3980688E5A8068A
:100DD00088E0B806BCF0A4E0B0E0BF83AE8312C0E8
:100DE000BC01CD0124E0660F771F881F991F2A954B
:100DF000D1F7A50194010E9443153F832E839AE504
:100E0000292E312CBE81B0FF05C08E819F810196B5
:100E10009F838E83AE81BF81A50194012858334101
:100E2000410951090E9493156B017C0120918903AE
:100E300030918A0340918B0350918C034090890339
:100E400050908A0360908B0370908C034A825B827F
:100E50006C827D820E94431529013A012E813F81D7
:100E6000A0E1B7E20E9484156C0D7D1D8E1D9F1DB3
:100E70002A813B814C815D810E94431542165306B5
:100E80006406750629F08E819F8102969F838E836A
:100E9000AE81BF81A50194010E9493152B013C01F5
:100EA0000091890310918A0320918B0330918C0368
:100EB000C12CE12CF12CAB01BC018EEF0E94D809B2
:100EC000C98095018401B301A20180E00E94D80984
:100ED000C980710195018401B301A20181E00E94E2
:100EE000D809C980E12CF12C95018401B301A2013C
:100EF00082E00E94D809319421943108C301B201E3
:100F0000A50194010E944315229EC001239E900DCD
:100F1000329E900D11246AE570E00E942F15809199
:100F20008D0390918E038617970741F070938E037F
:100F300060938D0360EA81EB0E94D4026CEF83E042
:100F40000E94D4028092760390927703A092780355
:100F5000B09279039E8190937A0320918903309116
:100F60008A0340918B0350918C03C301B2010E940C
:100F70004315DA01C9010497A109BE4F9C013695BA
:100F8000322F22273795279530937C0320937B03BC
:100F90002091890330918A0340918B0350918C03F7
:100FA000C301B2010E944315C0908903D0908A0307
:100FB000E0908B03F0908C032B013C01812C912C51
:100FC0005401688759866A867B868C869D86AE86A4
:100FD000BF869B01A30160E070E080E090E007E144
:100FE0000E94FD152A833983970186015601690104
:100FF000E12CF12C00E010E02A8139810E94A0153B
:10100000C901DA0180937D0390937E03A0937F034F
:10101000B093800360EA81EB2F960FB6F894DEBFA1
:101020000FBECDBFDF91CF911F910F91FF90EF9039
:10103000DF90CF90BF90AF909F908F907F906F90F8
:101040005F904F903F902F900C94D4022F960FB644
:10105000F894DEBF0FBECDBFDF91CF911F910F91EE
:10106000FF90EF90DF90CF90BF90AF909F908F90C8
:101070007F906F905F904F903F902F900895CF9208
:10108000DF92EF92FF920F931F93FC01818182FD0B
:1010900013C085FD11C0A489B5892C91968981FB67
:1010A000332730F983FB882780F98327292391E0B0
:1010B00009F090E08927828B8FB7F89440915B020A
:1010C00050915C0260915D0270915E028FBF9289C7
:1010D00023898081992301F121111EC080FD02C066
:1010E00081605CC006851785208931896A017B0192
:1010F000C01AD10AE20AF30A0381148120E030E029
:10110000C016D106E206F30608F44DC021E0238B99
:1011100080628068808328C08E7F808391111FC089
:10112000222309F440C0138A81FD03C083858F5FA9
:10113000838780818D7F8061808346875787608B1E
:10114000718B86FF04C0148613868F7B8083808119
:1011500087FF29C08F778083818181608183838924
:10116000882309F19923F9F00685178520893189AB
:101170006A017B01C01AD10AE20AF30A05811681CD
:1011800020E030E0C016D106E206F30660F0808170
:1011900081FD09C0238525878A648F7780834687F0
:1011A0005787608B718B0685178520893189401B95
:1011B000510B620B730B0781108520E030E0401764
:1011C00051076207730750F08385882339F0911126
:1011D00005C084871386808184608083818186FF37
:1011E00006C0148690819B7F90838F7B81831F91A3
:1011F0000F91FF90EF90DF90CF900895CF93DF9302
:10120000EC01898184FF03C0CE010E943F089881D0
:1012100092FB882780F992FF08C09C85923021F4C8
:1012200099819064998301C080E0DF91CF91089506
:10123000CF93DF93EC01898184FF03C0CE010E942C
:101240003F089981892F817090FF02C09E7F99830A
:10125000DF91CF9108953FB7F89480914F0290911C
:101260005002A0915102B091520226B5A89B05C030
:101270002F3F19F00196A11DB11D3FBFBA2FA92F15
:10128000982F8827820F911DA11DB11DBC01CD0192
:1012900042E0660F771F881F991F4A95D1F708957E
:1012A00087FF02C03C9801C03C9A3D9800000000B6
:1012B000000000003D9A000000000000000086FFD2
:1012C00002C03C9801C03C9A3D980000000000001C
:1012D00000003D9A000000000000000085FF02C0F1
:1012E0003C9801C03C9A3D980000000000000000BE
:1012F0003D9A000000000000000084FF02C03C98FE
:1013000001C03C9A3D9800000000000000003D9A9A
:10131000000000000000000083FF02C03C9801C0F4
:101320003C9A3D9800000000000000003D9A00003B
:1013300000000000000082FF02C03C9801C03C9AFF
:101340003D9800000000000000003D9A00000000F1
:101350000000000081FF02C03C9801C03C9A3D980B
:1013600000000000000000003D9A000000000000A6
:10137000000080FF02C03C9801C03C9A3D980000EC
:101380000000000000003D9A000000000000000086
:101390003C9800000000000000003D9800000000A4
:1013A000000000003D9A00000000000000000895C9
:1013B0002F923F924F925F926F927F928F929F9265
:1013C000AF92BF92CF92DF92EF92FF920F931F9353
:1013D000CF93DF93CDB7DEB764970FB6F894DEBF37
:1013E0000FBECDBF382E48015901FC8AEB8A2C2C48
:1013F000CB01BA01A90198010E94431529013A01C4
:101400003A8B298B2430310509F09BC040E050E035
:10141000BA0111E0812C912C54018394CB01BA01C3
:1014200037E0660F771F881F991F3A95D1F7620141
:10143000D694DC2CCC24D794C794E12CF12C22E058
:10144000D21AE108F108A50194010E944315C20EC9
:10145000D31EE41EF51E40E1249E900111242E2C83
:10146000222A29893A892430310511F020E001C06F
:101470002CE019828A8222292B83DC82CD82882467
:1014800099243FE0A322BB2424E0880C991CAA1CC9
:10149000BB1C2A95D1F7862A972AA82AB92AAE8298
:1014A0007F83688748E0BE016F5F7F4F832D880F81
:1014B000880F880F865D0E94B102612F6295660FCA
:1014C000660F607C37FE03C0606888E11EC06F60F5
:1014D00080E1830D0E94D4028B899C89849DA001A8
:1014E000859D500D949D500D112421E01227212F30
:1014F00030E0429FC001439F900D529F900D1124F8
:101500006AE570E00E941B1585EA830D0E94D402F3
:1015100064960FB6F894DEBF0FBECDBFDF91CF91BA
:101520001F910F91FF90EF90DF90CF90BF90AF9001
:101530009F908F907F906F905F904F903F902F90F3
:1015400008956B017C019B01A70160E070E080E0E1
:1015500090E000E10E94FD15F9017501640100E0D1
:1015600010E098018986DA86EB86FC860D871E8757
:101570002F87388B54016701E12CF12C00E010E03B
:101580009F010E94A015A32FF42FE52F422F5A2F61
:101590006F2F7E2F812C912C5401A3943FCF643068
:1015A00008F063E090917103691710F06FEF690F15
:1015B000E62FF0E0E25AFC4F9489890F80680C9482
:1015C000DA0E482F50E060E070E02AE08EE593E00C
:1015D0000C94D20CCF92DF92EF92FF92CF93DF93D5
:1015E0006C01990FEE08FF08F7FE15C06DE28FE55C
:1015F00092E00E942001EC0144275527BA014C19C2
:101600005D096E097F092AE08FE592E00E94D20C05
:10161000C80FD91F08C02AE0B701A6018FE592E0E4
:101620000E94D20CEC016AED71E08FE592E00E941D
:10163000BC018C0F9D1FDF91CF91FF90EF90DF9049
:10164000CF90089590E0FC01E458FF4F2491FC01F5
:10165000E057FF4F3491FC01E255FF4FE491EE2338
:1016600009F43CC0222339F1233091F038F42130C1
:10167000A9F0223001F584B58F7D12C0273091F09A
:101680002830A1F02430B9F4809180008F7D03C010
:10169000809180008F77809380000DC084B58F7714
:1016A00084BD09C08091B0008F7703C08091B000E5
:1016B0008F7D8093B000F0E0EE0FFF1FEE58FF4FDC
:1016C000A591B4919FB7F894611104C08C913095A5
:1016D000382302C0EC913E2B3C939FBF0895CF93DB
:1016E000DF9390E0FC01E057FF4F2491FC01E255AD
:1016F000FF4F8491882361F190E0880F991FFC01CE
:10170000E859FF4FC591D491FC01EE58FF4FA591C8
:10171000B491611109C09FB7F89488812095822304
:101720008883EC912E230BC0623061F49FB7F8944C
:101730008881322F309583238883EC912E2B2C9334
:101740009FBF06C08FB7F894E8812E2B28838FBFE8
:10175000DF91CF910895CF93DF93823028F090915D
:101760006D03986090936D038093710310927203E0
:1017700080E48093730380E18093740380E5809319
:10178000750361E0809162030E946F0B8091630397
:101790008F3F19F061E00E946F0B61E0809164035C
:1017A0000E946F0BCEE5D3E09E012E553340809111
:1017B0006D0384FD03C084E090E002C088E090E007
:1017C0002196281739072CF461E08E810E946F0B57
:1017D000EBCF8BE39DE00197F1F760E0809162032E
:1017E0000E94220B60E0809164030E94220B809192
:1017F00063038F3F19F060E00E94220B80916D031C
:1018000084FD20C063E08EE593E00E942B02CBE4D0
:10181000D6E4CE010197F1F763E08EE593E00E94F4
:101820002B022197F1F763E08EE593E00E942B02F3
:1018300083E592E00197F1F762E08EE593E00E9484
:101840002B0215C080620E94DA0E8BE496E40197A9
:10185000F1F780916D0380620E94DA0E83E592E0D9
:101860000197F1F780916D0380620E94DA0E8091FA
:101870006D0380620E94DA0E84E080936E038CE038
:101880000E94DA0E0E94E00E82E080936F0386E0F1
:10189000DF91CF910C94DA0E8F929F92AF92BF920C
:1018A000CF92DF92EF92FF926B017C010E942B0995
:1018B0004B015C01C114D104E104F104F1F00E9478
:1018C0002B09DC01CB0188199909AA09BB09883EBB
:1018D0009340A105B10570F321E0C21AD108E108D7
:1018E000F10888EE880E83E0981EA11CB11CC1147B
:1018F000D104E104F10419F7DDCFFF90EF90DF9000
:10190000CF90BF90AF909F908F9008950E941C162B
:101910001F920F920FB60F9211242F933F938F9324
:101920009F93AF93BF9380915B0290915C02A091D3
:101930005D02B0915E0230915A0223E0230F2D37F1
:1019400020F40196A11DB11D05C026E8230F0296C3
:10195000A11DB11D20935A0280935B0290935C02FB
:10196000A0935D02B0935E0280914F02909150026D
:10197000A0915102B09152020196A11DB11D809318
:101980004F0290935002A0935102B0935202BF9124
:10199000AF919F918F913F912F910F900FBE0F901C
:1019A0001F9018958F929F92AF92BF92EF92FF92E5
:1019B0000F931F93CF93DF93CDB7DEB7A1970FB6E9
:1019C000F894DEBF0FBECDBF7C01FA01CB0119A296
:1019D000223008F42AE08E010F5D1F4F822E912CD9
:1019E000A12CB12CBF01A50194010E944315F9015E
:1019F000CA01015011096A3014F4605D01C0695CCC
:101A0000D8016C93232B242B252B61F7B801C70138
:101A10000E94BC01A1960FB6F894DEBF0FBECDBFE9
:101A2000DF91CF911F910F91FF90EF90BF90AF90FA
:101A30009F908F900895CF93DF93EC018981877FEA
:101A4000898385FD18C062E08A810E946F0B8A81BC
:101A500090E0FC01E255FF4FE491F0E0EE0FFF1F34
:101A6000EC55FF4F259134913D8B2C8BFC01E057B9
:101A7000FF4FE491EE8BDF91CF9108958F929F926B
:101A8000AF92BF92CF92DF92EF92FF920F931F938C
:101A9000CF93DF932FB7F89440915B0250915C0293
:101AA00060915D0270915E022FBFE091FD02A091F6
:101AB0000E03E4FBFF27F0F9E4FFB5C0C09002037A
:101AC000D0900303E0900403F0900503A11110C02F
:101AD000C0911603D0911703388120911803322347
:101AE000B1E009F4B0E02091FE0221702B2703C081
:101AF000E7FB222720F920930F038A019B010C1991
:101B00001D092E093F0968017901B0910F03209149
:101B1000FC02BB23D1F021FD49C011E5C116D1045F
:101B2000E104F10408F442C040930203509303031C
:101B30006093040370930503297E2261206820933B
:101B4000FC022091FE0220622CC021FF2FC031E553
:101B5000C316D104E104F10448F122FF0BC1CDEB1F
:101B6000CC16C2E0DC06E104F10428F02091FC026E
:101B700020642093FC022091FC02409302035093C6
:101B8000030360930403709305032D7F2E7F20933E
:101B9000FC022091FE0225FFF4C024FDF2C020616A
:101BA000277F2093FE02C12CD12C76013091FE02BA
:101BB0002091FC0234FF15C00DE2C01601E0D006F2
:101BC000E104F10470F022FD07C033FD02C0326071
:101BD00001C034603093FE023091FE023F7E3093AC
:101BE000FE0221FF20C01DEBC11612E0D106E10468
:101BF000F104C8F022FD17C0BB2349F021602093F7
:101C0000FC022091FE022F7D2093FE020CC02D7F4E
:101C10002E7F2093FC0240930203509303036093B2
:101C2000040370930503AA2359F0E6FB882780F983
:101C300090E0880F991FE5FB992790F9892B18C030
:101C4000A0911003B09111039C91809112039823ED
:101C500021E009F420E0A0911303B09114038C91CA
:101C600090911503982311F082E001C080E0822B4F
:101C700020910003281709F490C01092010390915D
:101C8000FE0296FF1EC0833069F49F7B9093FE0294
:101C9000213021F02230C1F491E001C092E0909314
:101CA000010312C0E3FD71C0811113C09F7B9093AB
:101CB000FE02213019F0223009F069C0209301039F
:101CC00066C0882309F463C0E3FD03C0833009F4D0
:101CD0005EC0909101039923E9F12091FC022860F4
:101CE0002093FC0220910F03211125C0C090060310
:101CF000D0900703E0900803F09009034A015B01CC
:101D00008C189D08AE08BF08C090FF02D12CE12CB2
:101D1000F12C8C149D04AE04BF0468F4913021F4BE
:101D20003091FD02326005C0923029F43091FD02FD
:101D300031603093FD024093060350930703609394
:101D4000080370930903FF2329F0222319F09E5FF3
:101D500090930103809300038091FC028460809340
:101D6000FC024093020350930303609304037093B7
:101D7000050313C020FDF3CE2B7F20622093FC02CD
:101D8000EECE2091FE0228600CCF8111E3CF90911E
:101D9000FE0290649093FE029CCFDF91CF911F9141
:101DA0000F91FF90EF90DF90CF90BF90AF909F90FA
:101DB0008F90089540E0682F8EE593E00C945802D0
:101DC00081E00E94DA0E8BE39FE10197F1F708951D
:101DD00088B18F7C88B987B18F7C87B90895789452
:101DE00084B5826084BD84B5816084BD85B5826020
:101DF00085BD85B5816085BD80916E0081608093D1
:101E00006E00109281008091810082608093810039
:101E10008091810081608093810080918000816049
:101E2000809380008091B10084608093B1008091A4
:101E3000B00081608093B00080917A0084608093CC
:101E40007A0080917A00826080937A0080917A0093
:101E5000816080937A0080917A00806880937A0014
:101E60001092C100E0916F02F091700282E08083D5
:101E7000E0916B02F0916C021082E0916D02F091A2
:101E80006E028FEC808310927702E0917302F091E2
:101E9000740286E08083E0917102F0917202808189
:101EA00080618083E0917102F0917202808188608C
:101EB0008083E0917102F09172028081806880835A
:101EC000E0917102F091720280818F7D80836FEFCB
:101ED00083E00E94D40260E088E10E94D40260E0C6
:101EE00089E10E94D402C0E160E88C2F0E94D402F4
:101EF000CF5FC831C9F760E08BEB0E94D40260E08D
:101F000085E90E94D40262ED87EB0E94D40282E050
:101F10000E94AB0B0E94E00E60E080E00E94CF0ABE
:101F20006DED71E08EE593E00E94D10161E080E00B
:101F30000E94CF0A6CEE71E08EE593E00E94D10121
:101F40006CED75E080E090E00E944C0C60E080E079
:101F50000E94CF0A64EF71E08EE593E00E94D10108
:101F600060E080E00E94CF0A63E072E08EE593E0DB
:101F70000E94D1016CED75E080E090E00E944C0C75
:101F80006091040170910501809106019091070113
:101F90000E947F05E0910001F0910101EE0FFF1F0B
:101FA000EE0FFF1FEB5CFE4F608171818281938198
:101FB0000E94EA048091FD0288608093FD020E94E5
:101FC000E4028091040190910501A0910601B09175
:101FD00007016091580270915902AB01770F660BAF
:101FE000770B8A019B01080F191F2A1F3B1FC9018C
:101FF000B8010E942D0612E3E12EF12CF0924B0362
:10200000E0924A030CE211E010934D0300934C035D
:10201000C8E5D2E0D0934F03C0934E0387E493E02A
:102020000E941B0D809148038D7F80934803F0929E
:102030003403E09233031093360300933503D093B7
:102040003803C093370380E393E00E941B0D809117
:1020500031038D7F80933103F0923403E092330398
:102060001093360300933503D0933803C09337039E
:1020700080E393E00E941B0D809131038D7F80935C
:1020800031030CE0C02ED12CE12CF12C87E493E03D
:102090000E943F0880E393E00E943F0889E193E0BB
:1020A0000E943F080E943E0D8091FD0282FD0E9429
:1020B0003E0D80910103823009F04FC01092010360
:1020C00080910801882309F448C08091040190910F
:1020D0000501A0910601B0910701E0910001F09186
:1020E0000101EE0FFF1FEE0FFF1FEB5CFE4F408163
:1020F000518162817381841B950BA60BB70B809372
:10210000040190930501A0930601B093070160912B
:1021100004017091050180910601909107010E94D0
:102120007F050E94E4028091040190910501A09135
:102130000601B09107016091580270915902AB01FC
:10214000770F660B770B8A019B01080F191F2A1F57
:102150003B1FC901B8010E942D068091FD0282FD3E
:102160000E943E0D80910103813009F04FC0109212
:10217000010380910801882309F448C040910401BB
:10218000509105016091060170910701E0910001F5
:10219000F0910101EE0FFF1FEE0FFF1FEB5CFE4FF2
:1021A00080819181A281B381840F951FA61FB71FE3
:1021B0008093040190930501A0930601B093070159
:1021C00060910401709105018091060190910701D1
:1021D0000E947F050E94E402809104019091050114
:1021E000A0910601B09107016091580270915902C7
:1021F000AB01770F660B770B8A019B01080F191F44
:102200002A1F3B1FC901B8010E942D068091FD02C3
:1022100082FD0E943E0D8091FC0285FF43C08F7DB0
:102220008093FC02809108018823E1F10E94E00E76
:1022300060E080E00E94CF0A6DE072E08EE593E0FE
:102240000E94D10164E172E08EE593E00E94D10129
:1022500061E080E00E94CF0A6CE172E08EE593E0DD
:102260000E94D10164E873E080E090E00E944C0C91
:102270006091040170910501809106019091070120
:102280000E947F05E0910001F0910101EE0FFF1F18
:10229000EE0FFF1FEB5CFE4F6081718182819381A5
:1022A0000E94EA048091FD0282FD0E943E0D809111
:1022B0000103843021F510920103809108018823E5
:1022C000F1F080915802909159020E94EA0AE0913F
:1022D0000001F0910101EE0FFF1FEE0FFF1FEB5CFD
:1022E000FE4F208131818091580290915902820FD6
:1022F000931F90935902809358020E94B1048091D9
:10230000FD0282FD0E943E0D80910103833021F584
:1023100010920103809108018823F1F08091580206
:10232000909159020E94EA0AE0910001F0910101A6
:10233000EE0FFF1FEE0FFF1FEB5CFE4F8091580268
:102340009091590220813181821B930B9093590205
:10235000809358020E94B10487E493E00E94180918
:10236000882369F180910801882349F18091000157
:1023700090910101A0910201B09103011816190674
:102380001A061B060CF026C10197A109B10980931A
:10239000000190930101A0930201B0930301E09129
:1023A0000001F0910101EE0FFF1FEE0FFF1FEB5C2C
:1023B000FE4F60817181828193810E94EA0487E4EB
:1023C00093E00E94FE088091480384FF04C087E4E4
:1023D00093E00E943F088091470382FF09C08091EB
:1023E0005303833029F48091480380648093480329
:1023F00080E393E00E941809882369F18091080125
:10240000882349F18091000190910101A09102017E
:10241000B09103018D309105A105B1050CF0E3C029
:102420000196A11DB11D8093000190930101A0931D
:102430000201B0930301E0910001F0910101EE0F60
:10244000FF1FEE0FFF1FEB5CFE4F608171818281E9
:1024500093810E94EA0489E193E00E94180988238D
:10246000D1F080910801882349F01092080161E0C1
:102470008FE00E94CF0A67E272E009C081E080939A
:10248000080161E08FE00E94CF0A61E072E08EE512
:1024900093E00E94D10189E193E00E94FE08882325
:1024A00009F45FC080910801882309F45AC0809123
:1024B000540290915502A0915602B09157028B3070
:1024C0009105A105B1050CF097C0880F991F880FE1
:1024D000991FFC01E75FFE4F80819181A281B3814A
:1024E0008093040190930501A0930601B093070126
:1024F000609104017091050180910601909107019E
:102500000E947F050E94E4028091040190910501E0
:10251000A0910601B0910701609158027091590293
:10252000AB01770F660B770B8A019B01080F191F10
:102530002A1F3B1FC901B8010E942D068091540239
:1025400090915502A0915602B09157020196A11D9B
:10255000B11D8093540290935502A0935602B093FC
:1025600057020E947F0380915302882381F180915A
:10257000040190910501A0910601B09107016091BD
:10258000580270915902AB01770F660B770B8A01E5
:102590009B01080F191F2A1F3B1FC901B8010E9488
:1025A0002D066091040170910501809106019091C2
:1025B00007010E947F051092530261E080E00E94B3
:1025C000CF0A61E072E08EE593E00E94D1010E94A3
:1025D000AB045CCDC0920001D0920101E0920201F7
:1025E000F0920301DCCE10920001109201011092D2
:1025F0000201109203011FCF109254021092550253
:10260000109256021092570299CFEF92FF920F93B9
:102610001F93CF93DF93109262021092610288EEB3
:1026200093E0A0E0B0E08093630290936402A093F3
:102630006502B09366028DE691E09093600280930C
:102640005F0285EC90E090936C0280936B0284ECC7
:1026500090E090936E0280936D0280EC90E09093F6
:10266000700280936F0281EC90E0909372028093ED
:10267000710282EC90E0909374028093730286EC76
:1026800090E09093760280937502109278021092F7
:10269000790210927A0210927B0288B18F7C88B9FD
:1026A0003D9800000000000000003C983C9A80E447
:1026B00098E7ADE7B1E08093890390938A03A093F4
:1026C0008B03B0938C0310926103109260038FE729
:1026D00091E090935F0380935E0384E080936203B4
:1026E0008FEF8093630385E08093640386E080939B
:1026F000650387E08093660388E08093670389E041
:10270000809368031092690310926A0310926B031E
:1027100010926C0310926D0381E00E94AB0B8CE36E
:10272000E82EF12CF0924B03E0924A03C4EFD1E083
:10273000D0934D03C0934C03D0934F03C0934E03EB
:1027400000E911E0109351030093500310925203DB
:102750001092530310925403109255031092560393
:1027600010925703109258031092590310925A0373
:102770008BE080934903809148038F7D80934803C9
:1027800087E493E00E941B0D809148038B7E8D7F30
:1027900080934803F0923403E0923303D0933603DE
:1027A000C0933503D0933803C093370310933A0393
:1027B0000093390310923B0310923C0310923D03A7
:1027C00010923E0310923F03109240031092410377
:1027D00010924203109243038AE080933203809167
:1027E00031038F7D8093310380E393E00E941B0DC2
:1027F000809131038B7E8D7F80933103F0921D0396
:10280000E0921C03D0931F03C0931E03D0932103B7
:10281000C0932003109323030093220310922403F8
:10282000109225031092260310922703109228037A
:102830001092290310922A0310922B0310922C035A
:102840008DE080931B0380911A038F7D80931A0380
:1028500089E193E00E941B0D80911A038B7E8D7F8E
:1028600080931A0382E38093FF0210920003109278
:1028700001031092020310920303109204031092BA
:10288000050310920603109207031092080310929A
:10289000090310920D0310920E0310920F0382E0B1
:1028A00080930A0383E080930B038CE080930C03F6
:1028B0008091FD028061877F8093FD02E0EBF0E074
:1028C000E491F0E0EE0FFF1FEC55FF4F85919491DE
:1028D0009093110380931003E2E9F0E0E491E09318
:1028E0001203E1EBF0E0E491F0E0EE0FFF1FEC5596
:1028F000FF4F859194919093140380931303E3E920
:10290000F0E0E491E0931503EAEBF0E0E491F0E00D
:10291000EE0FFF1FEC55FF4F859194919093170395
:1029200080931603ECE9F0E0E491E093180362E091
:1029300082E00E946F0B62E080910B030E946F0B9C
:102940008091FD0284FF05C062E080910C030E942B
:102950006F0B8091FE0281608093FE02E091100374
:10296000F0911103908180911203982321E009F4E2
:1029700020E0E0911303F0911403808190911503FE
:10298000982311F480E001C082E0822B8093000341
:10299000DF91CF911F910F91FF90EF9008951F93BA
:1029A000FC0199278827BC01E89411911032E9F3C2
:1029B000193010F01E30C8F31B3251F01D3249F4AB
:1029C000689406C00E94F614610F711D811D911D4F
:1029D000119110531A30B0F33EF490958095709594
:1029E00061957F4F8F4F9F4F1F910895592F482F0B
:1029F000372F262F660F771F881F991F660F771FA7
:102A0000881F991F620F731F841F951F660F771F02
:102A1000881F991F0895DB018F939F930E94931540
:102A2000BF91AF91A29F800D911DA39F900DB29F6A
:102A3000900D11240895AA1BBB1B51E107C0AA1FCA
:102A4000BB1FA617B70710F0A61BB70B881F991F4F
:102A50005A95A9F780959095BC01CD01089597FBF3
:102A6000072E16F4009407D077FD09D00E941B159D
:102A700007FC05D03EF4909581959F4F0895709581
:102A800061957F4F0895A1E21A2EAA1BBB1BFD0181
:102A90000DC0AA1FBB1FEE1FFF1FA217B307E4073D
:102AA000F50720F0A21BB30BE40BF50B661F771F95
:102AB000881F991F1A9469F7609570958095909575
:102AC0009B01AC01BD01CF010895052E97FB1EF4BB
:102AD00000940E947C1557FD07D00E94431507FC07
:102AE00003D04EF40C947C1550954095309521956B
:102AF0003F4F4F4F5F4F089590958095709561952A
:102B00007F4F8F4F9F4F0895A29FB001B39FC00189
:102B1000A39F700D811D1124911DB29F700D811D09
:102B20001124911D08950E948415A59F900DB49FB6
:102B3000900DA49F800D911D11240895689401C0EB
:102B4000E8948F929F92CF93DF930E94AC15DF9110
:102B5000CF919F908F90089588249924F401E401E7
:102B6000B0E49F93AA279A158B049C04ED05FE05FB
:102B7000CF05D007A10798F4AD2FDC2FCF2FFE2F64
:102B8000E92D982C892E982F872F762F652F542F7B
:102B9000432F322F2227B85031F7BF9127C01B2E69
:102BA000BF91BB27220F331F441F551F661F771F7E
:102BB000881F991F881C991CEE1FFF1FCC1FDD1F4B
:102BC000AA1FBB1F8A149B04EC05FD05CE05DF057B
:102BD000A007B10748F08A189B08EC09FD09CE0947
:102BE000DF09A00BB10B21601A94E1F62EF49401D9
:102BF000AF01BE01CD01000C08950F93083090F095
:102C0000982F872F762F652F542F432F322F22276F
:102C10000850F4CF220F331F441F551F661F771F24
:102C2000881F991F0A95B2F70F910895EE0FFF1FA5
:102C30000590F491E02D099481E090E0F8940C94D3
:102C40001A19FB01DC014150504048F001900D92EF
:102C50000020C9F701C01D9241505040E0F708958F
:102C6000AEE0B0E0E6E3F6E10C94F1180D891E89C0
:102C700086E08C831A8309838FEF9FE79E838D8381
:102C8000AE01475E5F4F6F89788DCE0101960E943D
:102C90005216EF81F885E00FF11F10822E96E4E0C6
:102CA0000C940D19ABE0B0E0E8E5F6E10C94E31804
:102CB0006C017B018A01FC0117821682838181FFEE
:102CC000CCC1CE0101963C01F6019381F70193FD41
:102CD000859193FF81917F01882309F4BAC18532E0
:102CE00039F493FD859193FF81917F01853229F419
:102CF000B60190E00E944918E7CF912C212C312C8D
:102D0000FFE1F315D8F08B3279F038F4803279F0A6
:102D10008332A1F4232D20611DC08D3261F08033F8
:102D200069F4232D216016C0832D8260382EE32D97
:102D3000E4603E2E2AC0F32DF8601DC037FC2DC084
:102D400020ED280F2A3040F08E32B9F436FC81C1D4
:102D5000232D2064322E19C036FE06C08AE0989ECC
:102D6000200D1124922E11C0EAE02E9E200D112478
:102D7000222EF32DF0623F2E08C08C3621F4832DD5
:102D80008068382E02C0883641F4F70193FD8591A2
:102D900093FF81917F018111B3CF982F9F7D95542F
:102DA000933028F40C5F1F4F9FE399830DC0833647
:102DB00031F0833771F0833509F059C021C0F80133
:102DC000808189830E5F1F4F88248394912C530147
:102DD00013C02801F2E04F0E511CF801A080B18011
:102DE00036FE03C0692D70E002C06FEF7FEFC501B2
:102DF0000E943E184C018201F32DFF773F2E16C032
:102E0000280122E0420E511CF801A080B18036FE5C
:102E100003C0692D70E002C06FEF7FEFC5010E9413
:102E200033184C01F32DF0683F2E820133FC1BC098
:102E3000822D90E088169906B0F4B60180E290E009
:102E40000E9449182A94F4CFF50137FC859137FE8A
:102E500081915F01B60190E00E94491821102A94E7
:102E600021E0821A91088114910471F7E8C0843638
:102E700011F0893641F5F80137FE07C06081718194
:102E8000828193810C5F1F4F08C060817181072E82
:102E9000000C880B990B0E5F1F4FF32DFF763F2E12
:102EA00097FF09C090958095709561957F4F8F4FE2
:102EB0009F4FF0683F2E2AE030E0A3010E94851862
:102EC000882E861845C0853731F4232D2F7EB22EEB
:102ED0002AE030E025C0932D997FB92E8F36C1F0BE
:102EE00018F4883579F0B5C0803719F0883721F0AB
:102EF000B0C0E92FE061BE2EB4FE0DC0FB2DF46022
:102F0000BF2E09C034FE0AC0292F2660B22E06C08B
:102F100028E030E005C020E130E002C020E132E0EE
:102F2000F801B7FE07C060817181828193810C5FD7
:102F30001F4F06C06081718180E090E00E5F1F4FDF
:102F4000A3010E948518882E8618FB2DFF773F2E3F
:102F500036FE0DC0232D2E7FA22E891458F434FE88
:102F60000BC032FC09C0832D8E7EA82E05C0B82C64
:102F7000A32C03C0B82C01C0B92CA4FE0FC0FE01C5
:102F8000E80DF11D8081803321F49A2D997EA92EC0
:102F900009C0A2FE06C0B394B39404C08A2D8678FB
:102FA00009F0B394A3FC11C0A0FE06C0B21488F4CB
:102FB000280C922C9B180EC0B21460F4B60180E26B
:102FC00090E00E944918B394F7CFB21418F42B186C
:102FD00002C0982C212CA4FE10C0B60180E390E022
:102FE0000E944918A2FE17C0A1FC03C088E790E028
:102FF00002C088E590E0B6010CC08A2D867859F0B1
:10300000A1FE02C08BE201C080E2A7FC8DE2B60106
:1030100090E00E944918891438F4B60180E390E0EA
:103020000E9449189A94F7CF8A94F301E80DF11D94
:103030008081B60190E00E9449188110F5CF2220CE
:1030400009F442CEB60180E290E00E9449182A9429
:10305000F6CFF6018681978102C08FEF9FEF2B9606
:10306000E2E10C94FF18FC010590615070400110E2
:10307000D8F7809590958E0F9F1F0895FC016150A1
:10308000704001900110D8F7809590958E0F9F1F8A
:1030900008950F931F93CF93DF93FB01238121FDAD
:1030A00003C08FEF9FEF2CC022FF16C046815781CF
:1030B000248135814217530744F4A081B1819D01D9
:1030C0002F5F3F4F318320838C93268137812F5F81
:1030D0003F4F3783268314C08B01EC01FB01008432
:1030E000F185E02D0995892BE1F6D80116968D9191
:1030F0009C911797019617969C938E931697CE01E5
:10310000DF91CF911F910F910895FA01AA272830DE
:1031100051F1203181F1E8946F936E7F6E5F7F4FA4
:103120008F4F9F4FAF4FB1E03ED0B4E03CD0670F20
:10313000781F891F9A1FA11D680F791F8A1F911D73
:10314000A11D6A0F711D811D911DA11D20D009F4C3
:1031500068943F912AE0269F11243019305D319305
:10316000DEF6CF010895462F4770405D4193B3E0EE
:103170000FD0C9F7F6CF462F4F70405D4A3318F095
:10318000495D31FD4052419302D0A9F7EACFB4E046
:10319000A6959795879577956795BA95C9F70097FE
:1031A0006105710508959B01AC010A2E069457959F
:1031B000479537952795BA95C9F7620F731F841FF6
:1031C000951FA01D08952F923F924F925F926F928C
:1031D0007F928F929F92AF92BF92CF92DF92EF92A7
:1031E000FF920F931F93CF93DF93CDB7DEB7CA1B28
:1031F000DB0B0FB6F894DEBF0FBECDBF09942A8853
:10320000398848885F846E847D848C849B84AA84FA
:10321000B984C884DF80EE80FD800C811B81AA8187
:10322000B981CE0FD11D0FB6F894DEBF0FBECDBF52
:10323000ED01089510E0C2E6D0E004C0FE010E9456
:0E32400016162196C336D107C9F7F894FFCFB2
:10324E000700000060566C000140771B00E06735F8
:10325E0000C0CF6A00201D9A00809FD50020B213B7
:10326E0001406F4001406F400190CA7B01003FABAF
:10327E000180F0FA0201000000050000000A0000C3
:10328E00003200000064000000F4010000E80300BA
:10329E0000881300001027000050C30000A0860114
:1032AE000020A1070040420F000000000020018D09
:1032BE0000B7006D01E800C600DA0000000000ABA8
:1032CE00028D0090018F0146412530327525303335
:1032DE00750025303375253033753B004944303247
:1032EE00303B005053313B005253303B003F3B00CC
:1032FE00453B00636F722E202020202020202020AE
:10330E002020200020487A2000737420002E0020F8
:10331E00487A20202000667220000D0A0055534482
:10332E0058205369353335312D706800312D3330C7
:10333E004D487A00202020202020202020202020F0
:10334E002020005554334D4B2070636200312E30D7
:10335E0031627900204557384D4B550032312E30B1
:0A336E00322E32303232002A000005
:00000001FF
